{
  "_format": "hh-sol-artifact-1",
  "contractName": "NFTMarketplace",
  "sourceName": "contracts/NFTMarketplace.sol",
  "abi": [
    {
      "inputs": [],
      "stateMutability": "nonpayable",
      "type": "constructor"
    },
    {
      "anonymous": false,
      "inputs": [
        {
          "indexed": true,
          "internalType": "uint256",
          "name": "itemId",
          "type": "uint256"
        },
        {
          "indexed": true,
          "internalType": "address",
          "name": "nftContract",
          "type": "address"
        },
        {
          "indexed": true,
          "internalType": "uint256",
          "name": "tokenId",
          "type": "uint256"
        },
        {
          "indexed": false,
          "internalType": "address",
          "name": "seller",
          "type": "address"
        },
        {
          "indexed": false,
          "internalType": "address",
          "name": "owner",
          "type": "address"
        },
        {
          "indexed": false,
          "internalType": "uint256",
          "name": "price",
          "type": "uint256"
        },
        {
          "indexed": false,
          "internalType": "bool",
          "name": "sold",
          "type": "bool"
        }
      ],
      "name": "MarketItemCreated",
      "type": "event"
    },
    {
      "inputs": [
        {
          "internalType": "address",
          "name": "nftContract",
          "type": "address"
        },
        {
          "internalType": "uint256",
          "name": "tokenId",
          "type": "uint256"
        },
        {
          "internalType": "uint256",
          "name": "price",
          "type": "uint256"
        }
      ],
      "name": "createMarketItem",
      "outputs": [],
      "stateMutability": "payable",
      "type": "function"
    },
    {
      "inputs": [
        {
          "internalType": "address",
          "name": "nftContract",
          "type": "address"
        },
        {
          "internalType": "uint256",
          "name": "itemId",
          "type": "uint256"
        }
      ],
      "name": "createMarketSale",
      "outputs": [],
      "stateMutability": "payable",
      "type": "function"
    },
    {
      "inputs": [],
      "name": "fetchMarketItems",
      "outputs": [
        {
          "components": [
            {
              "internalType": "uint256",
              "name": "itemId",
              "type": "uint256"
            },
            {
              "internalType": "address",
              "name": "nftContract",
              "type": "address"
            },
            {
              "internalType": "uint256",
              "name": "tokenId",
              "type": "uint256"
            },
            {
              "internalType": "address payable",
              "name": "seller",
              "type": "address"
            },
            {
              "internalType": "address payable",
              "name": "owner",
              "type": "address"
            },
            {
              "internalType": "uint256",
              "name": "price",
              "type": "uint256"
            },
            {
              "internalType": "bool",
              "name": "sold",
              "type": "bool"
            }
          ],
          "internalType": "struct NFTMarketplace.MarketItem[]",
          "name": "",
          "type": "tuple[]"
        }
      ],
      "stateMutability": "view",
      "type": "function"
    },
    {
      "inputs": [],
      "name": "owner",
      "outputs": [
        {
          "internalType": "address",
          "name": "",
          "type": "address"
        }
      ],
      "stateMutability": "view",
      "type": "function"
    }
  ],
  "bytecode": "0x608060405234801561001057600080fd5b5060016000819055503373ffffffffffffffffffffffffffffffffffffffff16600360009054906101000a9050505061113a8061004e6000396000f3fe60806040526004361061003f5760003560e01c80630f08efe01461004457806358eb2df51461006f5780638da5cb5b1461008b578063c23b139e146100b6575b600080fd5b34801561005057600080fd5b506100596100d2565b6040516100669190610be7565b60405180910390f35b61008960048036038101906100849190610c66565b61039c565b005b34801561009757600080fd5b506100a0610676565b6040516100ad9190610cc8565b60405180910390f35b6100d060048036038101906100cb9190610ce3565b61069c565b005b606060006100e06001610915565b905060006100ee6002610915565b6100f86001610915565b6101029190610d52565b90506000808267ffffffffffffffff81111561012157610120610d86565b5b60405190808252806020026020018201604052801561015a57816020015b610147610993565b81526020019060019003908161013f5790505b50905060005b8481101561039157600073ffffffffffffffffffffffffffffffffffffffff16600460006001846101919190610db5565b815260200190815260200160002060040160009054906101000a900473ffffffffffffffffffffffffffffffffffffffff1673ffffffffffffffffffffffffffffffffffffffff16141561037e5760006001826101ee9190610db5565b90506000600460008381526020019081526020016000209050806040518060e0016040529081600082015481526020016001820160009054906101000a900473ffffffffffffffffffffffffffffffffffffffff1673ffffffffffffffffffffffffffffffffffffffff1673ffffffffffffffffffffffffffffffffffffffff168152602001600282015481526020016003820160009054906101000a900473ffffffffffffffffffffffffffffffffffffffff1673ffffffffffffffffffffffffffffffffffffffff1673ffffffffffffffffffffffffffffffffffffffff1681526020016004820160009054906101000a900473ffffffffffffffffffffffffffffffffffffffff1673ffffffffffffffffffffffffffffffffffffffff1673ffffffffffffffffffffffffffffffffffffffff168152602001600582015481526020016006820160009054906101000a900460ff16151515158152505084868151811061036157610360610e0b565b5b60200260200101819052506001856103799190610db5565b945050505b808061038990610e3a565b915050610160565b508094505050505090565b6103a4610923565b600081116103e7576040517f08c379a00000000000000000000000000000000000000000000000000000000081526004016103de90610ee0565b60405180910390fd5b6103f16001610973565b60006103fd6001610915565b90506040518060e001604052808281526020018573ffffffffffffffffffffffffffffffffffffffff1681526020018481526020013373ffffffffffffffffffffffffffffffffffffffff168152602001600073ffffffffffffffffffffffffffffffffffffffff16815260200183815260200160001515815250600460008381526020019081526020016000206000820151816000015560208201518160010160006101000a81548173ffffffffffffffffffffffffffffffffffffffff021916908373ffffffffffffffffffffffffffffffffffffffff1602179055506040820151816002015560608201518160030160006101000a81548173ffffffffffffffffffffffffffffffffffffffff021916908373ffffffffffffffffffffffffffffffffffffffff16021790555060808201518160040160006101000a81548173ffffffffffffffffffffffffffffffffffffffff021916908373ffffffffffffffffffffffffffffffffffffffff16021790555060a0820151816005015560c08201518160060160006101000a81548160ff0219169083151502179055509050508373ffffffffffffffffffffffffffffffffffffffff166323b872dd3330866040518463ffffffff1660e01b81526004016105de93929190610f0f565b600060405180830381600087803b1580156105f857600080fd5b505af115801561060c573d6000803e3d6000fd5b50505050828473ffffffffffffffffffffffffffffffffffffffff16827f045dfa01dcba2b36aba1d3dc4a874f4b0c5d2fbeb8d2c4b34a7d88c8d8f929d13360008760006040516106609493929190610f55565b60405180910390a450610671610989565b505050565b600360009054906101000a900473ffffffffffffffffffffffffffffffffffffffff1681565b6106a4610923565b60006004600083815260200190815260200160002060050154905060006004600084815260200190815260200160002060020154905060006004600085815260200190815260200160002060060160009054906101000a900460ff169050823414610744576040517f08c379a000000000000000000000000000000000000000000000000000000000815260040161073b9061100c565b60405180910390fd5b60011515811515141561078c576040517f08c379a000000000000000000000000000000000000000000000000000000000815260040161078390611078565b60405180910390fd5b6004600085815260200190815260200160002060030160009054906101000a900473ffffffffffffffffffffffffffffffffffffffff1673ffffffffffffffffffffffffffffffffffffffff166108fc349081150290604051600060405180830381858888f19350505050158015610808573d6000803e3d6000fd5b508473ffffffffffffffffffffffffffffffffffffffff166323b872dd3033856040518463ffffffff1660e01b815260040161084693929190610f0f565b600060405180830381600087803b15801561086057600080fd5b505af1158015610874573d6000803e3d6000fd5b50505050336004600086815260200190815260200160002060040160006101000a81548173ffffffffffffffffffffffffffffffffffffffff021916908373ffffffffffffffffffffffffffffffffffffffff1602179055506108d76002610973565b60016004600086815260200190815260200160002060060160006101000a81548160ff021916908315150217905550505050610911610989565b5050565b600081600001549050919050565b60026000541415610969576040517f08c379a0000000000000000000000000000000000000000000000000000000008152600401610960906110e4565b60405180910390fd5b6002600081905550565b6001816000016000828254019250508190555050565b6001600081905550565b6040518060e0016040528060008152602001600073ffffffffffffffffffffffffffffffffffffffff16815260200160008152602001600073ffffffffffffffffffffffffffffffffffffffff168152602001600073ffffffffffffffffffffffffffffffffffffffff168152602001600081526020016000151581525090565b600081519050919050565b600082825260208201905092915050565b6000819050602082019050919050565b6000819050919050565b610a5381610a40565b82525050565b600073ffffffffffffffffffffffffffffffffffffffff82169050919050565b6000610a8482610a59565b9050919050565b610a9481610a79565b82525050565b6000610aa582610a59565b9050919050565b610ab581610a9a565b82525050565b60008115159050919050565b610ad081610abb565b82525050565b60e082016000820151610aec6000850182610a4a565b506020820151610aff6020850182610a8b565b506040820151610b126040850182610a4a565b506060820151610b256060850182610aac565b506080820151610b386080850182610aac565b5060a0820151610b4b60a0850182610a4a565b5060c0820151610b5e60c0850182610ac7565b50505050565b6000610b708383610ad6565b60e08301905092915050565b6000602082019050919050565b6000610b9482610a14565b610b9e8185610a1f565b9350610ba983610a30565b8060005b83811015610bda578151610bc18882610b64565b9750610bcc83610b7c565b925050600181019050610bad565b5085935050505092915050565b60006020820190508181036000830152610c018184610b89565b905092915050565b600080fd5b610c1781610a79565b8114610c2257600080fd5b50565b600081359050610c3481610c0e565b92915050565b610c4381610a40565b8114610c4e57600080fd5b50565b600081359050610c6081610c3a565b92915050565b600080600060608486031215610c7f57610c7e610c09565b5b6000610c8d86828701610c25565b9350506020610c9e86828701610c51565b9250506040610caf86828701610c51565b9150509250925092565b610cc281610a79565b82525050565b6000602082019050610cdd6000830184610cb9565b92915050565b60008060408385031215610cfa57610cf9610c09565b5b6000610d0885828601610c25565b9250506020610d1985828601610c51565b9150509250929050565b7f4e487b7100000000000000000000000000000000000000000000000000000000600052601160045260246000fd5b6000610d5d82610a40565b9150610d6883610a40565b925082821015610d7b57610d7a610d23565b5b828203905092915050565b7f4e487b7100000000000000000000000000000000000000000000000000000000600052604160045260246000fd5b6000610dc082610a40565b9150610dcb83610a40565b9250827fffffffffffffffffffffffffffffffffffffffffffffffffffffffffffffffff03821115610e0057610dff610d23565b5b828201905092915050565b7f4e487b7100000000000000000000000000000000000000000000000000000000600052603260045260246000fd5b6000610e4582610a40565b91507fffffffffffffffffffffffffffffffffffffffffffffffffffffffffffffffff821415610e7857610e77610d23565b5b600182019050919050565b600082825260208201905092915050565b7f5072696365206d7573742062652067726561746572207468616e203000000000600082015250565b6000610eca601c83610e83565b9150610ed582610e94565b602082019050919050565b60006020820190508181036000830152610ef981610ebd565b9050919050565b610f0981610a40565b82525050565b6000606082019050610f246000830186610cb9565b610f316020830185610cb9565b610f3e6040830184610f00565b949350505050565b610f4f81610abb565b82525050565b6000608082019050610f6a6000830187610cb9565b610f776020830186610cb9565b610f846040830185610f00565b610f916060830184610f46565b95945050505050565b7f506c65617365207375626d6974207468652061736b696e67207072696365206960008201527f6e206f7264657220746f20636f6d706c65746520746865207075726368617365602082015250565b6000610ff6604083610e83565b915061100182610f9a565b604082019050919050565b6000602082019050818103600083015261102581610fe9565b9050919050565b7f546869732053616c652068617320616c72656164792066696e69736865640000600082015250565b6000611062601e83610e83565b915061106d8261102c565b602082019050919050565b6000602082019050818103600083015261109181611055565b9050919050565b7f5265656e7472616e637947756172643a207265656e7472616e742063616c6c00600082015250565b60006110ce601f83610e83565b91506110d982611098565b602082019050919050565b600060208201905081810360008301526110fd816110c1565b905091905056fea2646970667358221220e304a683771e512b554a81761aac12ed0ea445bfa389b8588f893b9e9377be4b64736f6c634300080b0033",
  "linkReferences": {},
  "deployedLinkReferences": {}
}